:100000000C942A000C943F000C943F000C943F0089
:100010000C943F000C943F000C943F000C943F0064
:100020000C943F000C943F000C943F000C943F0054
:100030000C943F000C943F000C943F000C943F0044
:100040000C943F000C943F000C943F000C943F0034
:100050000C943F0011241FBECFE5D8E0DEBFCDBF1A
:1000600010E0A0E6B0E0EEE7F5E002C005900D92EA
:10007000A638B107D9F70E94B7010C94BD020C94C1
:10008000000084B38E7F84BB84B38D7F84BB84B334
:100090008B7F84BB84B3877F84BB85B3816085BB42
:1000A00085B3826085BB85B3846085BB85B388607A
:1000B00085BB84B3806184BB84B3806284BB84B31A
:1000C000806484BB84B3806884BB85B3806185BB56
:1000D00085B3806285BB85B3806485BB85B380684A
:1000E00085BB089585B38F7E85BB989904C0989B86
:1000F000FECF81E313C0999904C0999BFECF84E39E
:100100000DC09A9904C09A9BFECF87E307C09B99C4
:1001100004C09B9BFECF8AE201C088E7E9EFF0E0D4
:100120003197F1F700C0000095B3906195BB95B38E
:100130009F7D95BB989904C0989BFECF82E311C028
:10014000999904C0999BFECF85E30BC09A9904C08E
:100150009A9BFECF88E305C09B9903C09B9BFECF73
:1001600080E3E9EFF0E03197F1F700C0000095B3CC
:10017000906295BB95B39F7B95BB989904C0989B63
:10018000FECF83E311C0999904C0999BFECF86E30B
:100190000BC09A9904C09A9BFECF89E305C09B9936
:1001A00003C09B9BFECF83E2E9EFF0E03197F1F7CC
:1001B00000C0000095B3906495BB95B39F7795BB45
:1001C000989904C0989BFECF81E411C0999904C00E
:1001D000999BFECF82E40BC09A9904C09A9BFECFF4
:1001E00083E405C09B9903C09B9BFECF84E4E9EFA9
:1001F000F0E03197F1F700C0000095B3906895BB2F
:10020000089598B3926098BB98B39B7F98BB9BB3BB
:100210009F70282F207F922B9BBB98B3986098BB30
:10022000EFE9FFE03197F1F700C0000098B3977F46
:1002300098BBEFE9FFE03197F1F700C000002BB366
:10024000F0E18F9FC0011124922F9F70892B8BBBEF
:1002500088B3886088BB8FE99FE00197F1F700C001
:10026000000088B3877F88BB9FEFE9EFF0E09150F3
:10027000E040F040E1F700C00000089598B39D7F92
:1002800098BB98B39B7F98BB9BB39F70282F207F10
:10029000922B9BBB98B3986098BBEFE9FFE0319736
:1002A000F1F700C0000098B3977F98BBEFE9FFE03B
:1002B0003197F1F700C000002BB3F0E18F9FC00130
:1002C0001124922F9F70892B8BBB88B3886088BBC9
:1002D0008FE99FE00197F1F700C0000088B3877FA6
:1002E00088BB9FEFE9EFF0E09150E040F040E1F78C
:1002F00000C0000008958AB3806F8ABB87B3846012
:1003000087BB87B3826087BB87B3886087BB8FE575
:100310009AEE0197F1F700C0000082E00E943E01D2
:1003200088E20E943E018CE00E943E0186E00E942D
:100330003E0181E00E943E0108950F931F93CF93E9
:100340008C01C0E003C00E940101CF5FF801EC0FF7
:10035000F11D80818111F7CFCF911F910F910895E9
:1003600081E00E943E0182E00E943E0108950E94C9
:100370007B010E9441000E947200D82F0E947200EF
:10038000C82F0E947200182F03C00E947200D82F3D
:10039000D837D9F38D2F0E94010103C00E9472004B
:1003A000C82FC837D9F3C13421F48FE20E9401016C
:1003B00027C0C23421F48AE20E94010121C0C33463
:1003C00021F48DE20E9401011BC0C43421F48BE2B0
:1003D0000E94010115C00E94B00180E690E00E94D9
:1003E0009D012FEF89E698E1215080409040E1F790
:1003F00000C000000E94B001BECF0E947200182F02
:100400001837D9F3812F0E9401011033A9F4C134A8
:1004100099F480EC0E943E018FE690E00E949D01DD
:100420002FEF89E698E1215080409040E1F700C02D
:1004300000000E94B0019FCFC13459F48D2F90E08D
:10044000C097612F70E0605371090E949502062FDA
:1004500018C0C23459F48D2F90E0C097212F30E09E
:1004600020533109829F002D11240BC0C33419F48D
:100470000D2F011B06C0C43421F48D2F810F00EA1B
:10048000080F0E94720002C00E9472008837E1F3D8
:10049000833231F48DE30E94010100237CF40AC011
:1004A0000E94B00180E690E00E949D010E94B00190
:1004B00008E761CF8DE20E940101019589E0800F7C
:1004C000833158F087E60802812D112485958595A2
:1004D00007FD8395805D0E94010187E60802812D5A
:1004E00011248595859507FD8395880F982F990F81
:1004F000990F890F202F281B822F805D0E940101F8
:100500000E9472000E947200C82F8A3221F40E9459
:10051000B00108E707C080EC0E943E0181E890E04E
:100520000E949D01CA3271F726CF97FB072E16F461
:10053000009407D077FD09D00E94A90207FC05D0DE
:100540003EF4909581959F4F0895709561957F4FEA
:100550000895AA1BBB1B51E107C0AA1FBB1FA6170A
:10056000B70710F0A61BB70B881F991F5A95A9F75C
:0E05700080959095BC01CD010895F894FFCFC1
:10057E00496E76616C696420456E7472792100490A
:10058E006E76616C69642044697620627920302130
:06059E00004F4E2F430048
:00000001FF
