S00B00004C43442E7372656346
S11300000C942A000C9434000C9434000C943400A6
S11300100C9434000C9434000C9434000C9434008C
S11300200C9434000C9434000C9434000C9434007C
S11300300C9434000C9434000C9434000C9434006C
S11300400C9434000C9434000C9434000C9434005C
S11300500C94340011241FBECFE5D8E0DEBFCDBF21
S11300600E9489010C940B020C940000813011F160
S113007030F08230D1F1833009F452C00895413018
S113008059F42AB381E090E002C0880F991F6A9561
S1130090E2F7822B8ABB089541115CC02AB381E048
S11300A090E002C0880F991F6A95E2F78095822339
S11300B08ABB0895413059F427B381E090E002C02F
S11300C0880F991F6A95E2F7822B87BB0895411127
S11300D041C027B381E090E002C0880F991F6A9560
S11300E0E2F78095822387BB0895413059F424B305
S11300F081E090E002C0880F991F6A95E2F7822B95
S113010084BB0895411126C024B381E090E002C06D
S1130110880F991F6A95E2F78095822384BB08951E
S1130120413059F421B381E090E002C0880F991F57
S11301306A95E2F7822B81BB089541110BC021B36C
S113014081E090E002C0880F991F6A95E2F78095DC
S1130150822381BB0895813079F028F08230A9F0A0
S11301608330E1F024C089B390E002C0959587956F
S11301706A95E2F78170089586B390E002C0959580
S113018087956A95E2F78170089583B390E002C081
S1130190959587956A95E2F78170089580B390E00C
S11301A002C0959587956A95E2F7817008958FEF5F
S11301B0089598B39D7F98BB98B39B7F98BB8BBBE6
S11301C088B3886088BB89EF90E00197F1F700C09D
S11301D0000088B3877F88BB87E893E10197F1F734
S11301E000C00000089598B3926098BB98B39B7FB9
S11301F098BB9BB39F70282F207F922B9BBB98B3F7
S1130200986098BBE9EFF0E03197F1F700C0000087
S113021098B3977F98BBE9EFF0E03197F1F700C00E
S113022000002BB3F0E18F9FC0011124922F9F7027
S1130230892B8BBB88B3886088BB89EF90E00197DA
S1130240F1F700C0000088B3877F88BBE7E8F3E1DB
S11302503197F1F700C00000089598B39D7F98BBD3
S113026098B39B7F98BB9BB39F70282F207F922BC2
S11302709BBB98B3986098BBE9EFF0E03197F1F736
S113028000C0000098B3977F98BBE9EFF0E0319786
S1130290F1F700C000002BB3F0E18F9FC0011124DF
S11302A0922F9F70892B8BBB88B3886088BB89EFA2
S11302B090E00197F1F700C0000088B3877F88BB06
S11302C0E7E8F3E13197F1F700C0000008958AB33D
S11302D0806F8ABB87B3846087BB87B3826087BB28
S11302E087B3886087BB85EA9EE00197F1F700C079
S11302F0000082E00E942D0188E20E942D018CE022
S11303000E942D0186E00E942D0181E00E942D01B2
S1130310089540E060E080E00E94360040E066E03E
S113032080E00E9436000E94670180E30E94F3008F
S113033080E30E94F300D0E060E081E00E94AB0023
S1130340882399F1D33611F0DF5F01C0D0E081E05A
S11303500E94D9008FE39FE10197F1F700C00000EC
S113036082E00E94D9008FE39FE10197F1F700C07A
S11303700000CDECDC9FC12D1124C695C695C69511
S113038080E38C0F0E94F300CC0F8C2F880F880F12
S1130390C80F8D2F8C1B805D0E94F30060E081E00C
S11303A00E94AB008111FACFC7CF66E083E00E94C0
S11303B0AB00882309F2D111D15081E00E94D90009
S11303C08FE39FE10197F1F700C0000082E00E94F3
S11303D0D9008FE39FE10197F1F700C00000CDEC55
S11303E0DC9FC12D1124C695C695C69580E38C0F5C
S11303F00E94F300CC0F8C2F880F880FC80F8D2F0D
S11304008C1B805D0E94F30066E083E00E94AB00D9
S10D04108111FACF91CFF894FFCFC9
S9030000FC
