S0160000486561727465725F636F6F6C65722E7372656360
S11300000C942A000C9421020C9430020C944700A6
S11300100C9447000C9447000C9447000C94470040
S11300200C9447000C9447000C9447000C94470030
S11300300C9447000C9447000C9447000C94470020
S11300400C9447000C9447000C9447000C94470010
S11300500C94470011241FBECFE5D8E0DEBFCDBF0E
S113006010E0A0E6B0E0E6E5F9E002C005900D92EC
S1130070A238B107D9F720E0A2E8B0E001C01D9290
S1130080A338B207E1F70E943C020C94A9040C9433
S1130090000087B1806487B987B18F7D87B986B145
S11300A0816086B986B1826086B986B1846086B97A
S11300B086B1806886B9089597B1907E97B997B153
S11300C0892B87B986B1806486B93499FECF24B16F
S11300D085B190E0982F8827820F911D089585B7E8
S11300E08E7F85BF85B7826085BF8BB780648BBFE9
S11300F07894089585B78B7F85BF85B7886085BF61
S11301008BB780688BBF78940895813011F130F0FB
S11301108230D1F1833009F452C00895413059F44A
S11301202AB381E090E002C0880F991F6A95E2F734
S1130130822B8ABB089541115CC02AB381E090E010
S113014002C0880F991F6A95E2F7809582238ABBC3
S11301500895413059F427B381E090E002C0880F3C
S1130160991F6A95E2F7822B87BB0895411141C01C
S113017027B381E090E002C0880F991F6A95E2F7E7
S11301808095822387BB0895413059F424B381E0DC
S113019090E002C0880F991F6A95E2F7822B84BB16
S11301A00895411126C024B381E090E002C0880F75
S11301B0991F6A95E2F78095822384BB08954130A4
S11301C059F421B381E090E002C0880F991F6A9529
S11301D0E2F7822B81BB089541110BC021B381E06A
S11301E090E002C0880F991F6A95E2F780958223F8
S11301F081BB0895813019F130F08230E1F1833010
S113020009F454C0089541110BC02BB381E090E070
S113021002C0880F991F6A95E2F7822B8BBB089561
S1130220413009F05DC02BB381E090E002C0880F3B
S1130230991F6A95E2F7809582238BBB089541113B
S11302400BC028B381E090E002C0880F991F6A9523
S1130250E2F7822B88BB0895413009F041C028B3EE
S113026081E090E002C0880F991F6A95E2F78095BB
S1130270822388BB089541110BC025B381E090E02F
S113028002C0880F991F6A95E2F7822B85BB0895F7
S1130290413031F525B381E090E002C0880F991F09
S11302A06A95E2F78095822385BB089541110BC0BE
S11302B022B381E090E002C0880F991F6A95E2F7AB
S11302C0822B82BB0895413059F422B381E090E03F
S11302D002C0880F991F6A95E2F78095822382BB3A
S11302E0089598B3926098BB98B39B7F98BB9BB3D7
S11302F09F70282F207F922B9BBB98B3986098BB4C
S1130300E9EFF0E03197F1F700C0000098B3977F70
S113031098BBE9EFF0E03197F1F700C000002BB390
S1130320F0E18F9FC0011124922F9F70892B8BBB0A
S113033088B3886088BB89EF90E00197F1F700C02B
S1130340000088B3877F88BBE7E8F3E13197F1F7D2
S113035000C00000089598B39D7F98BB98B39B7F1D
S113036098BB9BB39F70282F207F922B9BBB98B385
S1130370986098BBE9EFF0E03197F1F700C0000016
S113038098B3977F98BBE9EFF0E03197F1F700C09D
S113039000002BB3F0E18F9FC0011124922F9F70B6
S11303A0892B8BBB88B3886088BB89EF90E0019769
S11303B0F1F700C0000088B3877F88BBE7E8F3E16A
S11303C03197F1F700C0000008958AB3806F8ABBAB
S11303D087B3846087BB87B3826087BB87B3886039
S11303E087BB85EA9EE00197F1F700C0000082E038
S11303F00E94AB0188E20E94AB018CE00E94AB0139
S113040086E00E94AB0181E00E94AB0108950F9346
S11304101F93CF938C01C0E003C00E947101CF5F92
S1130420F801EC0FF11D80818111F7CFCF911F915D
S11304300F91089581E00E94AB0182E00E94AB011C
S113044008951F920F920FB60F9211248F9381E09B
S1130450809382008F910F900FBE0F901F9018957C
S11304601F920F920FB60F921124109282000F90D8
S11304700FBE0F901F90189540E060E080E00E944E
S1130480850040E062E083E00E94850040E063E094
S113049083E00E94850040E062E083E00E94FA006D
S11304A040E063E083E00E94FA0041E060E083E022
S11304B00E94850041E061E083E00E94850041E004
S11304C064E083E00E9485000E9449000E94E501E7
S11304D00E946F000E947A0080918200882309F4B0
S11304E08AC080E00E945C00BC0180E090E00E9431
S11304F0AE0320E030E44CE955E40E943C0420E0E3
S113050030E040E85AE30E943C0420E030E040E25E
S113051051E40E940D030E947F03D62F81E00E94C4
S1130520AB0182E00E94AB0180E690E00E940702EA
S1130530CDECDC9FC12D1124C695C695C69580E3EC
S11305408C0F0E947101CC0F8C2F880F880FC80F5D
S11305508D2F8C1B805D0E94710180EC0E94AB0189
S113056088EE8D0F8330A0F440E060E083E00E94C9
S1130570FA0041E061E083E00E94FA0041E064E0B7
S113058083E00E94FA0087E690E00E94070229C0F7
S1130590D831A0F441E060E083E00E94FA0040E03A
S11305A061E083E00E94FA0041E064E083E00E949D
S11305B0FA0088E790E00E94070213C041E060E07F
S11305C083E00E94FA0041E061E083E00E94FA00C7
S11305D040E064E083E00E94FA008DE790E00E942E
S11305E007022FE986E891E0215080409040E1F72E
S11305F000C0000071CF0E941A0241E060E083E075
S11306000E94FA0041E061E083E00E94FA0041E0C8
S113061064E083E00E94FA005FCF0E9421030C94FF
S113062002040E94FB0358F00E94F40340F029F4F2
S11306305F3F29F00C94EB0351110C9436040C9495
S1130640F1030E94130468F39923B1F3552391F342
S1130650951B550BBB27AA2762177307840738F02D
S11306609F5F5F4F220F331F441FAA1FA9F335D08A
S11306700E2E3AF0E0E832D091505040E695001C3E
S1130680CAF72BD0FE2F29D0660F771F881FBB1FF8
S1130690261737074807AB07B0E809F0BB0B802DD6
S11306A0BF01FF2793585F4F3AF09E3F510578F002
S11306B00C94EB030C9436045F3FE4F3983ED4F3BC
S11306C0869577956795B795F7959F5FC9F7880FD6
S11306D0911D9695879597F90895E1E0660F771F28
S11306E0881FBB1F621773078407BA0720F0621BB9
S11306F0730B840BBA0BEE1F88F7E09508950E94E4
S11307001B0488F09F5798F0B92F9927B751B0F080
S1130710E1F0660F771F881F991F1AF0BA95C9F781
S113072014C0B13091F00E943504B1E008950C94E6
S11307303504672F782F8827B85F39F0B93FCCF399
S1130740869577956795B395D9F73EF490958095FE
S1130750709561957F4F8F4F9F4F0895E89409C01E
S113076097FB3EF490958095709561957F4F8F4FE0
S11307709F4F9923A9F0F92F96E9BB279395F695F6
S1130780879577956795B795F111F8CFFAF4BB0F74
S113079011F460FF1BC06F5F7F4F8F4F9F4F16C0D8
S11307A0882311F096E911C0772321F09EE8872F62
S11307B0762F05C0662371F096E8862F70E060E01E
S11307C02AF09A95660F771F881FDAF7880F969597
S11307D0879597F9089597F99F6780E870E060E03E
S11307E008959FEF80EC089500240A9416161706C6
S11307F018060906089500240A941216130614060E
S113080005060895092E0394000C11F4882352F070
S1130810BB0F40F4BF2B11F460FF04C06F5F7F4F28
S11308208F4F9F4F089557FD9058440F551F59F00F
S11308305F3F71F04795880F97FB991F61F09F3FC9
S113084079F087950895121613061406551FF2CFF2
S11308504695F1DF08C0161617061806991FF1CF42
S113086086957105610508940895E894BB27662769
S11308707727CB0197F908950E944F040C94020442
S11308800E94F40338F00E94FB0320F0952311F03A
S11308900C94EB030C94F10311240C9436040E9481
S11308A0130470F3959FC1F3950F50E0551F629F99
S11308B0F001729FBB27F00DB11D639FAA27F00DB5
S11308C0B11DAA1F649F6627B00DA11D661F829FDC
S11308D02227B00DA11D621F739FB00DA11D621FC1
S11308E0839FA00D611D221F749F3327A00D611DDE
S11308F0231F849F600D211D822F762F6A2F1124C0
S11309009F5750409AF0F1F088234AF0EE0FFF1FF2
S1130910BB1F661F771F881F91505040A9F79E3F49
S1130920510580F00C94EB030C9436045F3FE4F320
S1130930983ED4F3869577956795B795F795E7959F
S11309409F5FC1F7FE2B880F911D9695879597F9A8
S10909500895F894FFCFA6
S113095654656D703A200045766572797468696EDF
S113096667206973204F4B00436F6F6C00486F74A8
S105097600007B
S9030000FC
