S00C0000455854492E73726563DE
S11300000C942A000C94DB010C943C000C943C00EE
S11300100C943C000C943C000C943C000C943C006C
S11300200C943C000C943C000C943C000C943C005C
S11300300C943C000C943C000C943C000C943C004C
S11300400C943C000C943C000C943C000C943C003C
S11300500C943C0011241FBECFE5D8E0DEBFCDBF19
S113006020E0A0E6B0E001C01D92A136B207E1F79E
S11300700E9417020C9475020C94000085B78E7FC1
S113008085BF85B7826085BF8BB780648BBF78944A
S1130090089585B78B7F85BF85B7886085BF8BB78B
S11300A080688BBF78940895813011F130F08230EC
S11300B0D1F1833009F452C00895413059F42AB380
S11300C081E090E002C0880F991F6A95E2F7822BC5
S11300D08ABB089541115CC02AB381E090E002C05C
S11300E0880F991F6A95E2F7809582238ABB089549
S11300F0413059F427B381E090E002C0880F991F82
S11301006A95E2F7822B87BB0895411141C027B35A
S113011081E090E002C0880F991F6A95E2F780950C
S1130120822387BB0895413059F424B381E090E0E1
S113013002C0880F991F6A95E2F7822B84BB089549
S1130140411126C024B381E090E002C0880F991FBA
S11301506A95E2F78095822384BB0895413059F46F
S113016021B381E090E002C0880F991F6A95E2F7FD
S1130170822B81BB089541110BC021B381E090E033
S113018002C0880F991F6A95E2F78095822381BB8C
S11301900895813079F028F08230A9F08330E1F0BD
S11301A024C089B390E002C0959587956A95E2F7DB
S11301B08170089586B390E002C0959587956A95FD
S11301C0E2F78170089583B390E002C09595879516
S11301D06A95E2F78170089580B390E002C0959526
S11301E087956A95E2F7817008958FEF08958130BD
S11301F089F028F08230C9F0833011F108952BB3CF
S113020081E090E002C0880F991F6A95E2F7822787
S11302108BBB089528B381E090E002C0880F991F3A
S11302206A95E2F7822788BB089525B381E090E0C0
S113023002C0880F991F6A95E2F7822785BB08954B
S113024022B381E090E002C0880F991F6A95E2F71B
S1130250822782BB089598B39D7F98BB98B39B7FF8
S113026098BB8BBB88B3886088BB89EF90E001970B
S1130270F1F700C0000088B3877F88BB87E893E16B
S11302800197F1F700C00000089598B3926098BBFD
S113029098B39B7F98BB9BB39F70282F207F922B92
S11302A09BBB98B3986098BBE9EFF0E03197F1F706
S11302B000C0000098B3977F98BBE9EFF0E0319756
S11302C0F1F700C000002BB3F0E18F9FC0011124AF
S11302D0922F9F70892B8BBB88B3886088BB89EF72
S11302E090E00197F1F700C0000088B3877F88BBD6
S11302F0E7E8F3E13197F1F700C00000089598B3FF
S11303009D7F98BB98B39B7F98BB9BB39F70282F0E
S1130310207F922B9BBB98B3986098BBE9EFF0E0E9
S11303203197F1F700C0000098B3977F98BBE9EFCD
S1130330F0E03197F1F700C000002BB3F0E18F9F9C
S1130340C0011124922F9F70892B8BBB88B38860C6
S113035088BB89EF90E00197F1F700C0000088B3F3
S1130360877F88BBE7E8F3E13197F1F700C000002D
S113037008958AB3806F8ABB87B3846087BB87B3D1
S1130380826087BB87B3886087BB85EA9EE001975C
S1130390F1F700C0000082E00E947F0188E20E9421
S11303A07F018CE00E947F0186E00E947F0181E052
S11303B00E947F0108951F920F920FB60F9211248D
S11303C02F933F934F935F936F937F938F939F9359
S11303D0AF93BF93EF93FF9380916000833619F43A
S11303E01092600003C08F5F8093600062E082E03F
S11303F00E94F70062E083E00E94C9008111FACFF5
S113040087E893E10197F1F700C00000FF91EF91B5
S1130410BF91AF919F918F917F916F915F914F9118
S11304203F912F910F900FBE0F901F90189540E0B1
S113043062E083E00E94540041E062E082E00E94B6
S113044054000E94B9010E943E000E94490080911C
S11304506000CDEC8C9F812D112486958695869520
S1130460805D0E944501909160009C9F812D112424
S1130470869586958695880F282F220F220F820F46
S1130480981B892F805D0E94450181E00E942B0109
S113049083EF91E00197F1F700C0000082E00E9431
S11304A02B0183EF91E00197F1F700C000008091E8
S11304B06000CDEC8C9F812D1124869586958695C0
S11304C0805D0E944501809160008C9FC12D1124A4
S11304D0C695C695C695CC0F9C2F990F990FC90F39
S11104E08C1B805D0E944501D0CFF894FFCFA5
S9030000FC
